{
  "abi": [
    {
      "inputs": [
        {
          "internalType": "string",
          "name": "name",
          "type": "string"
        },
        {
          "internalType": "string",
          "name": "symbol",
          "type": "string"
        },
        {
          "internalType": "uint256",
          "name": "totalSupply",
          "type": "uint256"
        },
        {
          "internalType": "address",
          "name": "_treasury",
          "type": "address"
        }
      ],
      "stateMutability": "nonpayable",
      "type": "constructor"
    },
    {
      "anonymous": false,
      "inputs": [
        {
          "indexed": true,
          "internalType": "address",
          "name": "owner",
          "type": "address"
        },
        {
          "indexed": true,
          "internalType": "address",
          "name": "spender",
          "type": "address"
        },
        {
          "indexed": false,
          "internalType": "uint256",
          "name": "value",
          "type": "uint256"
        }
      ],
      "name": "Approval",
      "type": "event"
    },
    {
      "anonymous": false,
      "inputs": [
        {
          "indexed": true,
          "internalType": "address",
          "name": "from",
          "type": "address"
        },
        {
          "indexed": true,
          "internalType": "address",
          "name": "to",
          "type": "address"
        },
        {
          "indexed": false,
          "internalType": "uint256",
          "name": "value",
          "type": "uint256"
        }
      ],
      "name": "Transfer",
      "type": "event"
    },
    {
      "inputs": [
        {
          "internalType": "address",
          "name": "owner",
          "type": "address"
        },
        {
          "internalType": "address",
          "name": "spender",
          "type": "address"
        }
      ],
      "name": "allowance",
      "outputs": [
        {
          "internalType": "uint256",
          "name": "",
          "type": "uint256"
        }
      ],
      "stateMutability": "view",
      "type": "function"
    },
    {
      "inputs": [
        {
          "internalType": "address",
          "name": "spender",
          "type": "address"
        },
        {
          "internalType": "uint256",
          "name": "amount",
          "type": "uint256"
        }
      ],
      "name": "approve",
      "outputs": [
        {
          "internalType": "bool",
          "name": "",
          "type": "bool"
        }
      ],
      "stateMutability": "nonpayable",
      "type": "function"
    },
    {
      "inputs": [
        {
          "internalType": "address",
          "name": "account",
          "type": "address"
        }
      ],
      "name": "balanceOf",
      "outputs": [
        {
          "internalType": "uint256",
          "name": "",
          "type": "uint256"
        }
      ],
      "stateMutability": "view",
      "type": "function"
    },
    {
      "inputs": [],
      "name": "decimals",
      "outputs": [
        {
          "internalType": "uint8",
          "name": "",
          "type": "uint8"
        }
      ],
      "stateMutability": "view",
      "type": "function"
    },
    {
      "inputs": [
        {
          "internalType": "address",
          "name": "spender",
          "type": "address"
        },
        {
          "internalType": "uint256",
          "name": "subtractedValue",
          "type": "uint256"
        }
      ],
      "name": "decreaseAllowance",
      "outputs": [
        {
          "internalType": "bool",
          "name": "",
          "type": "bool"
        }
      ],
      "stateMutability": "nonpayable",
      "type": "function"
    },
    {
      "inputs": [
        {
          "internalType": "address",
          "name": "spender",
          "type": "address"
        },
        {
          "internalType": "uint256",
          "name": "addedValue",
          "type": "uint256"
        }
      ],
      "name": "increaseAllowance",
      "outputs": [
        {
          "internalType": "bool",
          "name": "",
          "type": "bool"
        }
      ],
      "stateMutability": "nonpayable",
      "type": "function"
    },
    {
      "inputs": [],
      "name": "name",
      "outputs": [
        {
          "internalType": "string",
          "name": "",
          "type": "string"
        }
      ],
      "stateMutability": "view",
      "type": "function"
    },
    {
      "inputs": [],
      "name": "symbol",
      "outputs": [
        {
          "internalType": "string",
          "name": "",
          "type": "string"
        }
      ],
      "stateMutability": "view",
      "type": "function"
    },
    {
      "inputs": [],
      "name": "totalSupply",
      "outputs": [
        {
          "internalType": "uint256",
          "name": "",
          "type": "uint256"
        }
      ],
      "stateMutability": "view",
      "type": "function"
    },
    {
      "inputs": [
        {
          "internalType": "address",
          "name": "to",
          "type": "address"
        },
        {
          "internalType": "uint256",
          "name": "amount",
          "type": "uint256"
        }
      ],
      "name": "transfer",
      "outputs": [
        {
          "internalType": "bool",
          "name": "",
          "type": "bool"
        }
      ],
      "stateMutability": "nonpayable",
      "type": "function"
    },
    {
      "inputs": [
        {
          "internalType": "address",
          "name": "from",
          "type": "address"
        },
        {
          "internalType": "address",
          "name": "to",
          "type": "address"
        },
        {
          "internalType": "uint256",
          "name": "amount",
          "type": "uint256"
        }
      ],
      "name": "transferFrom",
      "outputs": [
        {
          "internalType": "bool",
          "name": "",
          "type": "bool"
        }
      ],
      "stateMutability": "nonpayable",
      "type": "function"
    },
    {
      "inputs": [],
      "name": "treasury",
      "outputs": [
        {
          "internalType": "address",
          "name": "",
          "type": "address"
        }
      ],
      "stateMutability": "view",
      "type": "function"
    }
  ],
  "bytecode": {
    "object": "0x60806040523480156200001157600080fd5b5060405162000eb838038062000eb883398101604081905262000034916200023b565b838360036200004483826200035e565b5060046200005382826200035e565b5050600580546001600160a01b0319166001600160a01b03841617905550620000a1336200007f601290565b6200008f9060ff16600a6200053f565b6200009b908562000554565b620000ab565b5050505062000584565b6001600160a01b038216620001065760405162461bcd60e51b815260206004820152601f60248201527f45524332303a206d696e7420746f20746865207a65726f206164647265737300604482015260640160405180910390fd5b80600260008282546200011a91906200056e565b90915550506001600160a01b038216600081815260208181526040808320805486019055518481527fddf252ad1be2c89b69c2b068fc378daa952ba7f163c4a11628f55a4df523b3ef910160405180910390a35050565b505050565b634e487b7160e01b600052604160045260246000fd5b600082601f8301126200019e57600080fd5b81516001600160401b0380821115620001bb57620001bb62000176565b604051601f8301601f19908116603f01168101908282118183101715620001e657620001e662000176565b816040528381526020925086838588010111156200020357600080fd5b600091505b8382101562000227578582018301518183018401529082019062000208565b600093810190920192909252949350505050565b600080600080608085870312156200025257600080fd5b84516001600160401b03808211156200026a57600080fd5b62000278888389016200018c565b955060208701519150808211156200028f57600080fd5b506200029e878288016200018c565b60408701516060880151919550935090506001600160a01b0381168114620002c557600080fd5b939692955090935050565b600181811c90821680620002e557607f821691505b6020821081036200030657634e487b7160e01b600052602260045260246000fd5b50919050565b601f8211156200017157600081815260208120601f850160051c81016020861015620003355750805b601f850160051c820191505b81811015620003565782815560010162000341565b505050505050565b81516001600160401b038111156200037a576200037a62000176565b62000392816200038b8454620002d0565b846200030c565b602080601f831160018114620003ca5760008415620003b15750858301515b600019600386901b1c1916600185901b17855562000356565b600085815260208120601f198616915b82811015620003fb57888601518255948401946001909101908401620003da565b50858210156200041a5787850151600019600388901b60f8161c191681555b5050505050600190811b01905550565b634e487b7160e01b600052601160045260246000fd5b600181815b80851115620004815781600019048211156200046557620004656200042a565b808516156200047357918102915b93841c939080029062000445565b509250929050565b6000826200049a5750600162000539565b81620004a95750600062000539565b8160018114620004c25760028114620004cd57620004ed565b600191505062000539565b60ff841115620004e157620004e16200042a565b50506001821b62000539565b5060208310610133831016604e8410600b841016171562000512575081810a62000539565b6200051e838362000440565b80600019048211156200053557620005356200042a565b0290505b92915050565b60006200054d838362000489565b9392505050565b80820281158282048414176200053957620005396200042a565b808201808211156200053957620005396200042a565b61092480620005946000396000f3fe608060405234801561001057600080fd5b50600436106100b45760003560e01c806361d027b31161007157806361d027b31461014157806370a082311461016c57806395d89b4114610195578063a457c2d71461019d578063a9059cbb146101b0578063dd62ed3e146101c357600080fd5b806306fdde03146100b9578063095ea7b3146100d757806318160ddd146100fa57806323b872dd1461010c578063313ce5671461011f578063395093511461012e575b600080fd5b6100c16101d6565b6040516100ce919061071a565b60405180910390f35b6100ea6100e5366004610784565b610268565b60405190151581526020016100ce565b6002545b6040519081526020016100ce565b6100ea61011a3660046107ae565b610282565b604051601281526020016100ce565b6100ea61013c366004610784565b6102a6565b600554610154906001600160a01b031681565b6040516001600160a01b0390911681526020016100ce565b6100fe61017a3660046107ea565b6001600160a01b031660009081526020819052604090205490565b6100c16102c8565b6100ea6101ab366004610784565b6102d7565b6100ea6101be366004610784565b610357565b6100fe6101d136600461080c565b610365565b6060600380546101e59061083f565b80601f01602080910402602001604051908101604052809291908181526020018280546102119061083f565b801561025e5780601f106102335761010080835404028352916020019161025e565b820191906000526020600020905b81548152906001019060200180831161024157829003601f168201915b5050505050905090565b600033610276818585610390565b60019150505b92915050565b6000336102908582856104b4565b61029b85858561052e565b506001949350505050565b6000336102768185856102b98383610365565b6102c3919061088f565b610390565b6060600480546101e59061083f565b600033816102e58286610365565b90508381101561034a5760405162461bcd60e51b815260206004820152602560248201527f45524332303a2064656372656173656420616c6c6f77616e63652062656c6f77604482015264207a65726f60d81b60648201526084015b60405180910390fd5b61029b8286868403610390565b60003361027681858561052e565b6001600160a01b03918216600090815260016020908152604080832093909416825291909152205490565b6001600160a01b0383166103f25760405162461bcd60e51b8152602060048201526024808201527f45524332303a20617070726f76652066726f6d20746865207a65726f206164646044820152637265737360e01b6064820152608401610341565b6001600160a01b0382166104535760405162461bcd60e51b815260206004820152602260248201527f45524332303a20617070726f766520746f20746865207a65726f206164647265604482015261737360f01b6064820152608401610341565b6001600160a01b0383811660008181526001602090815260408083209487168084529482529182902085905590518481527f8c5be1e5ebec7d5bd14f71427d1e84f3dd0314c0f7b2291e5b200ac8c7c3b925910160405180910390a3505050565b60006104c08484610365565b90506000198114610528578181101561051b5760405162461bcd60e51b815260206004820152601d60248201527f45524332303a20696e73756666696369656e7420616c6c6f77616e63650000006044820152606401610341565b6105288484848403610390565b50505050565b600061271061053e8360646108a2565b61054891906108b9565b905061055481836108db565b60055490925061056f9085906001600160a01b031683610576565b6105288484845b6001600160a01b0383166105da5760405162461bcd60e51b815260206004820152602560248201527f45524332303a207472616e736665722066726f6d20746865207a65726f206164604482015264647265737360d81b6064820152608401610341565b6001600160a01b03821661063c5760405162461bcd60e51b815260206004820152602360248201527f45524332303a207472616e7366657220746f20746865207a65726f206164647260448201526265737360e81b6064820152608401610341565b6001600160a01b038316600090815260208190526040902054818110156106b45760405162461bcd60e51b815260206004820152602660248201527f45524332303a207472616e7366657220616d6f756e7420657863656564732062604482015265616c616e636560d01b6064820152608401610341565b6001600160a01b03848116600081815260208181526040808320878703905593871680835291849020805487019055925185815290927fddf252ad1be2c89b69c2b068fc378daa952ba7f163c4a11628f55a4df523b3ef910160405180910390a3610528565b600060208083528351808285015260005b818110156107475785810183015185820160400152820161072b565b506000604082860101526040601f19601f8301168501019250505092915050565b80356001600160a01b038116811461077f57600080fd5b919050565b6000806040838503121561079757600080fd5b6107a083610768565b946020939093013593505050565b6000806000606084860312156107c357600080fd5b6107cc84610768565b92506107da60208501610768565b9150604084013590509250925092565b6000602082840312156107fc57600080fd5b61080582610768565b9392505050565b6000806040838503121561081f57600080fd5b61082883610768565b915061083660208401610768565b90509250929050565b600181811c9082168061085357607f821691505b60208210810361087357634e487b7160e01b600052602260045260246000fd5b50919050565b634e487b7160e01b600052601160045260246000fd5b8082018082111561027c5761027c610879565b808202811582820484141761027c5761027c610879565b6000826108d657634e487b7160e01b600052601260045260246000fd5b500490565b8181038181111561027c5761027c61087956fea2646970667358221220decfa2ebfe10bfca4323dbf12ab3db4da6ed0743e98458c648d99877ccb581d764736f6c63430008110033",
    "linkReferences": {}
  },
  "methodIdentifiers": {
    "allowance(address,address)": "dd62ed3e",
    "approve(address,uint256)": "095ea7b3",
    "balanceOf(address)": "70a08231",
    "decimals()": "313ce567",
    "decreaseAllowance(address,uint256)": "a457c2d7",
    "increaseAllowance(address,uint256)": "39509351",
    "name()": "06fdde03",
    "symbol()": "95d89b41",
    "totalSupply()": "18160ddd",
    "transfer(address,uint256)": "a9059cbb",
    "transferFrom(address,address,uint256)": "23b872dd",
    "treasury()": "61d027b3"
  },
  "id": 0
}